{
  "transactions": [
    {
      "hash": "0x9db74e1a2f4e233093a8e164207764e8ce579a974e356050d57f938cf2540739",
      "transactionType": "CREATE",
      "contractName": null,
      "contractAddress": "0x239df500874530ef5c8ebc795b188472dfbe8e7d",
      "function": null,
      "arguments": null,
      "transaction": {
        "from": "0x5c614f5e552295365d0df72091b727301e5f231d",
        "gas": "0x13a57f",
        "value": "0x0",
        "input": "0x608034620000d457601f6200125d38819003918201601f19168301916001600160401b03831184841017620000d857808492602094604052833981010312620000d457516001600160a01b038116808203620000d457156200008f57806200006b6200007e92620000ec565b5062000077816200015c565b50620001fc565b50604051610f869081620002978239f35b60405162461bcd60e51b815260206004820152601560248201527f496e76616c69642061646d696e206164647265737300000000000000000000006044820152606490fd5b5f80fd5b634e487b7160e01b5f52604160045260245ffd5b6001600160a01b03165f8181525f805160206200123d833981519152602052604090205460ff1662000157575f8181525f805160206200123d83398151915260205260408120805460ff191660011790553391905f805160206200121d8339815191528180a4600190565b505f90565b6001600160a01b03165f8181527f67bcfbf35756677f23a8ae0794a270a120a136adcdf734695bd9cb737207236e60205260409020547fb42242fd77c25999dbbe63f35dfdd439d2445e754482af309753a6694100d0a0919060ff16620001f657815f525f60205260405f20815f5260205260405f20600160ff1982541617905533915f805160206200121d8339815191525f80a4600190565b50505f90565b6001600160a01b03165f8181527fa0587e2ea35601d342586a480a83c4e913c1ee0d383acf188642f0043bf6ebe460205260409020547f906ae24cd9cf7cacfca327d94b093e52e6751face5c051d8ff21f5c1c3c2de23919060ff16620001f657815f525f60205260405f20815f5260205260405f20600160ff1982541617905533915f805160206200121d8339815191525f80a460019056fe60806040818152600480361015610014575f80fd5b5f925f3560e01c90816301ffc9a714610af057508063248a9ca314610aa8578063270401cb1461094f5780632f2ff15d1461090857806336568abe1461087d578381635c73d60a146107b0575080636e1793c31461075757806372588bc91461056957806372c90d72146105105783816388c5055a146104075750806391d1485414610399578063a217fddf14610360578063b5b3ca2c14610219578063d547741f146101b95763e62cf220146100c9575f80fd5b8291346101b55760207ffffffffffffffffffffffffffffffffffffffffffffffffffffffffffffffffc3601126101b55773ffffffffffffffffffffffffffffffffffffffff610117610bab565b61011f610d8e565b169161012c831515610bf1565b815192807f385a28cf4754bd62fde01bcce82b673bd45cb357f835cf679a756de5d8e93bcd8680a2803b156101b1578491848381937f3f4ba83a0000000000000000000000000000000000000000000000000000000083525af19081156101a857506101955750f35b61019e90610c56565b6101a55780f35b80fd5b513d84823e3d90fd5b8480fd5b5050fd5b50903461021557807ffffffffffffffffffffffffffffffffffffffffffffffffffffffffffffffffc36011261021557610211913561020c60016101fb610bce565b938387528660205286200154610de9565b610eb2565b5080f35b8280fd5b5082903461035c57827ffffffffffffffffffffffffffffffffffffffffffffffffffffffffffffffffc36011261035c57610252610bab565b9273ffffffffffffffffffffffffffffffffffffffff60243594610274610cfc565b1691610281831515610bf1565b6127108511610300578394837f389f6e01d911ce2a6919bdcf4e57d270003243ca9c54e7911454a70f89aee19e60208551848152a2833b156101b1576024859283855196879485937f787dce3d0000000000000000000000000000000000000000000000000000000085528401525af19081156101a857506101955750f35b602060649251917f08c379a0000000000000000000000000000000000000000000000000000000008352820152601360248201527f4665652065786365656473206d6178696d756d000000000000000000000000006044820152fd5b5080fd5b50503461035c57817ffffffffffffffffffffffffffffffffffffffffffffffffffffffffffffffffc36011261035c5751908152602090f35b503461021557817ffffffffffffffffffffffffffffffffffffffffffffffffffffffffffffffffc3601126102155773ffffffffffffffffffffffffffffffffffffffff826020946103e9610bce565b933581528086522091165f52825260ff815f20541690519015158152f35b929050346101b55760607ffffffffffffffffffffffffffffffffffffffffffffffffffffffffffffffffc3601126101b557610441610bab565b9161044a610bce565b6044359384151580950361050c57610460610cfc565b73ffffffffffffffffffffffffffffffffffffffff80911691610484831515610bf1565b1690610491821515610c97565b81817f7f443f7429f847cd2c9114c906cb93c9c005df595c7a5501404eb1f151869e3860208751898152a3803b1561050c57859283604492865197889586947fc997dbca00000000000000000000000000000000000000000000000000000000865285015260248401525af19081156101a857506101955750f35b8580fd5b50503461035c57817ffffffffffffffffffffffffffffffffffffffffffffffffffffffffffffffffc36011261035c57602090517fb42242fd77c25999dbbe63f35dfdd439d2445e754482af309753a6694100d0a08152f35b5082903461035c5760a07ffffffffffffffffffffffffffffffffffffffffffffffffffffffffffffffffc36011261035c576105a3610bab565b926105ac610bce565b60443592606435956084359073ffffffffffffffffffffffffffffffffffffffff908183168093036107535781906105e2610d8e565b16936105ef851515610bf1565b16916105fc831515610c97565b85156106f657871561069957869783857f1401b6ff3b281e84fd77353369caed48ba7e787dd3821db05cc00643736082018880518b8152856020820152a3843b1561069557879460849386928851998a9788967f6462bb4e0000000000000000000000000000000000000000000000000000000088528701526024860152604485015260648401525af19081156101a857506101955750f35b8780fd5b60649060208651917f08c379a0000000000000000000000000000000000000000000000000000000008352820152600e60248201527f496e76616c696420616d6f756e740000000000000000000000000000000000006044820152fd5b60649060208651917f08c379a0000000000000000000000000000000000000000000000000000000008352820152600f60248201527f496e76616c696420746f6b656e496400000000000000000000000000000000006044820152fd5b5f80fd5b50503461035c57817ffffffffffffffffffffffffffffffffffffffffffffffffffffffffffffffffc36011261035c57602090517f906ae24cd9cf7cacfca327d94b093e52e6751face5c051d8ff21f5c1c3c2de238152f35b929050346101b55760207ffffffffffffffffffffffffffffffffffffffffffffffffffffffffffffffffc3601126101b55773ffffffffffffffffffffffffffffffffffffffff6107ff610bab565b610807610d8e565b1691610814831515610bf1565b815192807f720419d686e04979382078792dce127b7417b1f1b934573e9ae7a7d40eb86e878680a2803b156101b1578491848381937f8456cb590000000000000000000000000000000000000000000000000000000083525af19081156101a857506101955750f35b5091903461035c57807ffffffffffffffffffffffffffffffffffffffffffffffffffffffffffffffffc36011261035c576108b6610bce565b903373ffffffffffffffffffffffffffffffffffffffff8316036108e05750610211919235610eb2565b8390517f6697b232000000000000000000000000000000000000000000000000000000008152fd5b50903461021557807ffffffffffffffffffffffffffffffffffffffffffffffffffffffffffffffffc36011261021557610211913561094a60016101fb610bce565b610e0a565b50903461075357807ffffffffffffffffffffffffffffffffffffffffffffffffffffffffffffffffc36011261075357610987610bab565b91610990610bce565b92610999610cfc565b73ffffffffffffffffffffffffffffffffffffffff809116936109bd851515610bf1565b16908115610a4b5782519382817faaebcf1bfa00580e41d966056b48521fa9f202645c86d4ddf28113e617c1b1d35f80a3803b1561075357845f602492819583957fe74b981b0000000000000000000000000000000000000000000000000000000085528401525af1908115610a425750610a36575080f35b610a409150610c56565b005b513d5f823e3d90fd5b60649060208451917f08c379a0000000000000000000000000000000000000000000000000000000008352820152601960248201527f496e76616c696420726563697069656e742061646472657373000000000000006044820152fd5b5090346107535760207ffffffffffffffffffffffffffffffffffffffffffffffffffffffffffffffffc36011261075357602091355f525f82526001815f2001549051908152f35b82346107535760207ffffffffffffffffffffffffffffffffffffffffffffffffffffffffffffffffc3601126107535735907fffffffff00000000000000000000000000000000000000000000000000000000821680920361075357817f7965db0b0000000000000000000000000000000000000000000000000000000060209314908115610b81575b5015158152f35b7f01ffc9a70000000000000000000000000000000000000000000000000000000091501483610b7a565b6004359073ffffffffffffffffffffffffffffffffffffffff8216820361075357565b6024359073ffffffffffffffffffffffffffffffffffffffff8216820361075357565b15610bf857565b60646040517f08c379a000000000000000000000000000000000000000000000000000000000815260206004820152601b60248201527f496e76616c6964206d61726b6574706c616365206164647265737300000000006044820152fd5b67ffffffffffffffff8111610c6a57604052565b7f4e487b71000000000000000000000000000000000000000000000000000000005f52604160045260245ffd5b15610c9e57565b60646040517f08c379a000000000000000000000000000000000000000000000000000000000815260206004820152601560248201527f496e76616c696420746f6b656e206164647265737300000000000000000000006044820152fd5b335f9081527f67bcfbf35756677f23a8ae0794a270a120a136adcdf734695bd9cb737207236e60205260409020547fb42242fd77c25999dbbe63f35dfdd439d2445e754482af309753a6694100d0a09060ff1615610d575750565b604490604051907fe2517d3f0000000000000000000000000000000000000000000000000000000082523360048301526024820152fd5b335f9081527fa0587e2ea35601d342586a480a83c4e913c1ee0d383acf188642f0043bf6ebe460205260409020547f906ae24cd9cf7cacfca327d94b093e52e6751face5c051d8ff21f5c1c3c2de239060ff1615610d575750565b805f525f60205260405f20335f5260205260ff60405f20541615610d575750565b90815f525f60205273ffffffffffffffffffffffffffffffffffffffff60405f20911690815f5260205260ff60405f205416155f14610eac57815f525f60205260405f20815f5260205260405f2060017fffffffffffffffffffffffffffffffffffffffffffffffffffffffffffffff0082541617905533917f2f8788117e7eff1d82e926ec794901d17c78024a50270940304540a733656f0d5f80a4600190565b50505f90565b90815f525f60205273ffffffffffffffffffffffffffffffffffffffff60405f20911690815f5260205260ff60405f2054165f14610eac57815f525f60205260405f20815f5260205260405f207fffffffffffffffffffffffffffffffffffffffffffffffffffffffffffffff00815416905533917ff6391f5c32d9c69d2a47ea670b442974b53935d1edc7fd64eb21e047a839171b5f80a460019056fea2646970667358221220f2b17007d0cd60db558f046793f48c2e479c4889768244f5fc77b238e2ffc63a64736f6c634300081800332f8788117e7eff1d82e926ec794901d17c78024a50270940304540a733656f0dad3228b676f7d3cd4284a5443f17f1962b36e491b30a40b2405849e597ba5fb50000000000000000000000005c614f5e552295365d0df72091b727301e5f231d",
        "nonce": "0x6",
        "chainId": "0x106a"
      },
      "additionalContracts": [],
      "isFixedGasLimit": false
    },
    {
      "hash": "0x5dc3bc9e01de5b2d74374990f8f9ee43be724a0378cf60764dc84e8b6e121e33",
      "transactionType": "CALL",
      "contractName": null,
      "contractAddress": "0x239df500874530ef5c8ebc795b188472dfbe8e7d",
      "function": "grantRole(bytes32,address)",
      "arguments": [
        "0x906ae24cd9cf7cacfca327d94b093e52e6751face5c051d8ff21f5c1c3c2de23",
        "0x5C614f5e552295365D0Df72091b727301e5f231D"
      ],
      "transaction": {
        "from": "0x5c614f5e552295365d0df72091b727301e5f231d",
        "to": "0x239df500874530ef5c8ebc795b188472dfbe8e7d",
        "gas": "0x9c4b",
        "value": "0x0",
        "input": "0x2f2ff15d906ae24cd9cf7cacfca327d94b093e52e6751face5c051d8ff21f5c1c3c2de230000000000000000000000005c614f5e552295365d0df72091b727301e5f231d",
        "nonce": "0x7",
        "chainId": "0x106a"
      },
      "additionalContracts": [],
      "isFixedGasLimit": false
    },
    {
      "hash": "0x125672c179f90271340c9decae0268b97f3369aecfb438884bff0f57732bdc37",
      "transactionType": "CALL",
      "contractName": null,
      "contractAddress": "0x239df500874530ef5c8ebc795b188472dfbe8e7d",
      "function": "grantRole(bytes32,address)",
      "arguments": [
        "0xb42242fd77c25999dbbe63f35dfdd439d2445e754482af309753a6694100d0a0",
        "0x5C614f5e552295365D0Df72091b727301e5f231D"
      ],
      "transaction": {
        "from": "0x5c614f5e552295365d0df72091b727301e5f231d",
        "to": "0x239df500874530ef5c8ebc795b188472dfbe8e7d",
        "gas": "0x9c3a",
        "value": "0x0",
        "input": "0x2f2ff15db42242fd77c25999dbbe63f35dfdd439d2445e754482af309753a6694100d0a00000000000000000000000005c614f5e552295365d0df72091b727301e5f231d",
        "nonce": "0x8",
        "chainId": "0x106a"
      },
      "additionalContracts": [],
      "isFixedGasLimit": false
    }
  ],
  "receipts": [
    {
      "status": "0x1",
      "cumulativeGasUsed": "0xfc817",
      "logs": [
        {
          "address": "0x239df500874530ef5c8ebc795b188472dfbe8e7d",
          "topics": [
            "0x2f8788117e7eff1d82e926ec794901d17c78024a50270940304540a733656f0d",
            "0x0000000000000000000000000000000000000000000000000000000000000000",
            "0x0000000000000000000000005c614f5e552295365d0df72091b727301e5f231d",
            "0x0000000000000000000000005c614f5e552295365d0df72091b727301e5f231d"
          ],
          "data": "0x",
          "blockHash": "0x1498e609a763b21faa4e80a52cbe18bbdfaf1ee0c7c1cc9ac41a8c5c7138bf73",
          "blockNumber": "0x101ee0c",
          "transactionHash": "0x9db74e1a2f4e233093a8e164207764e8ce579a974e356050d57f938cf2540739",
          "transactionIndex": "0x1",
          "logIndex": "0x0",
          "removed": false
        },
        {
          "address": "0x239df500874530ef5c8ebc795b188472dfbe8e7d",
          "topics": [
            "0x2f8788117e7eff1d82e926ec794901d17c78024a50270940304540a733656f0d",
            "0xb42242fd77c25999dbbe63f35dfdd439d2445e754482af309753a6694100d0a0",
            "0x0000000000000000000000005c614f5e552295365d0df72091b727301e5f231d",
            "0x0000000000000000000000005c614f5e552295365d0df72091b727301e5f231d"
          ],
          "data": "0x",
          "blockHash": "0x1498e609a763b21faa4e80a52cbe18bbdfaf1ee0c7c1cc9ac41a8c5c7138bf73",
          "blockNumber": "0x101ee0c",
          "transactionHash": "0x9db74e1a2f4e233093a8e164207764e8ce579a974e356050d57f938cf2540739",
          "transactionIndex": "0x1",
          "logIndex": "0x1",
          "removed": false
        },
        {
          "address": "0x239df500874530ef5c8ebc795b188472dfbe8e7d",
          "topics": [
            "0x2f8788117e7eff1d82e926ec794901d17c78024a50270940304540a733656f0d",
            "0x906ae24cd9cf7cacfca327d94b093e52e6751face5c051d8ff21f5c1c3c2de23",
            "0x0000000000000000000000005c614f5e552295365d0df72091b727301e5f231d",
            "0x0000000000000000000000005c614f5e552295365d0df72091b727301e5f231d"
          ],
          "data": "0x",
          "blockHash": "0x1498e609a763b21faa4e80a52cbe18bbdfaf1ee0c7c1cc9ac41a8c5c7138bf73",
          "blockNumber": "0x101ee0c",
          "transactionHash": "0x9db74e1a2f4e233093a8e164207764e8ce579a974e356050d57f938cf2540739",
          "transactionIndex": "0x1",
          "logIndex": "0x2",
          "removed": false
        }
      ],
      "logsBloom": "0x00000014000000000000000000000000000000000000000100000000000000000000000000000000000000000000000000000000000000000000010004000000000008000000040000000000000000000000000000040000002000000000000000000000020000000000000000000800000000000000000000000000000000000000000000000000000000000000000000000000000000000000000000000000000010000000000000000000000000000000000000000000001000000000000000000000000000000000000008000000000040000000000100000000000020000000000000000000000000000000040000000000000000000000000000000000",
      "type": "0x2",
      "transactionHash": "0x9db74e1a2f4e233093a8e164207764e8ce579a974e356050d57f938cf2540739",
      "transactionIndex": "0x1",
      "blockHash": "0x1498e609a763b21faa4e80a52cbe18bbdfaf1ee0c7c1cc9ac41a8c5c7138bf73",
      "blockNumber": "0x101ee0c",
      "gasUsed": "0xf1cd8",
      "effectiveGasPrice": "0xfe",
      "from": "0x5c614f5e552295365d0df72091b727301e5f231d",
      "to": null,
      "contractAddress": "0x239df500874530ef5c8ebc795b188472dfbe8e7d",
      "l1BaseFeeScalar": "0x2af8",
      "l1BlobBaseFee": "0x1",
      "l1BlobBaseFeeScalar": "0x109618",
      "l1Fee": "0x3d81bf28bc1",
      "l1GasPrice": "0x2a5af448a",
      "l1GasUsed": "0x8403"
    },
    {
      "status": "0x1",
      "cumulativeGasUsed": "0x10393f",
      "logs": [],
      "logsBloom": "0x00000000000000000000000000000000000000000000000000000000000000000000000000000000000000000000000000000000000000000000000000000000000000000000000000000000000000000000000000000000000000000000000000000000000000000000000000000000000000000000000000000000000000000000000000000000000000000000000000000000000000000000000000000000000000000000000000000000000000000000000000000000000000000000000000000000000000000000000000000000000000000000000000000000000000000000000000000000000000000000000000000000000000000000000000000000",
      "type": "0x2",
      "transactionHash": "0x5dc3bc9e01de5b2d74374990f8f9ee43be724a0378cf60764dc84e8b6e121e33",
      "transactionIndex": "0x2",
      "blockHash": "0x1498e609a763b21faa4e80a52cbe18bbdfaf1ee0c7c1cc9ac41a8c5c7138bf73",
      "blockNumber": "0x101ee0c",
      "gasUsed": "0x7128",
      "effectiveGasPrice": "0xfe",
      "from": "0x5c614f5e552295365d0df72091b727301e5f231d",
      "to": "0x239df500874530ef5c8ebc795b188472dfbe8e7d",
      "contractAddress": null,
      "l1BaseFeeScalar": "0x2af8",
      "l1BlobBaseFee": "0x1",
      "l1BlobBaseFeeScalar": "0x109618",
      "l1Fee": "0x2f3165be78",
      "l1GasPrice": "0x2a5af448a",
      "l1GasUsed": "0x654"
    },
    {
      "status": "0x1",
      "cumulativeGasUsed": "0x10aa5b",
      "logs": [],
      "logsBloom": "0x00000000000000000000000000000000000000000000000000000000000000000000000000000000000000000000000000000000000000000000000000000000000000000000000000000000000000000000000000000000000000000000000000000000000000000000000000000000000000000000000000000000000000000000000000000000000000000000000000000000000000000000000000000000000000000000000000000000000000000000000000000000000000000000000000000000000000000000000000000000000000000000000000000000000000000000000000000000000000000000000000000000000000000000000000000000",
      "type": "0x2",
      "transactionHash": "0x125672c179f90271340c9decae0268b97f3369aecfb438884bff0f57732bdc37",
      "transactionIndex": "0x3",
      "blockHash": "0x1498e609a763b21faa4e80a52cbe18bbdfaf1ee0c7c1cc9ac41a8c5c7138bf73",
      "blockNumber": "0x101ee0c",
      "gasUsed": "0x711c",
      "effectiveGasPrice": "0xfe",
      "from": "0x5c614f5e552295365d0df72091b727301e5f231d",
      "to": "0x239df500874530ef5c8ebc795b188472dfbe8e7d",
      "contractAddress": null,
      "l1BaseFeeScalar": "0x2af8",
      "l1BlobBaseFee": "0x1",
      "l1BlobBaseFeeScalar": "0x109618",
      "l1Fee": "0x2f3165be78",
      "l1GasPrice": "0x2a5af448a",
      "l1GasUsed": "0x654"
    }
  ],
  "libraries": [],
  "pending": [],
  "returns": {
    "0": {
      "internal_type": "contract MarketplaceController",
      "value": "0x239dF500874530EF5C8EBc795b188472dFbe8E7d"
    }
  },
  "timestamp": 1739120376,
  "chain": 4202,
  "commit": "569cb19"
}